:400000000080002011000000290600002906000008B5044B1A6803F53F5302331A6000F00BFB00BFFA46004010B5054C237833B9044B13B10448AFF300800123237010BD13
:400040001085FF1F000000004C0D0000084B10B51BB108490848AFF300800848036803B910BD074B002BFBD0BDE81040184700BF000000001485FF1F4C0D0000C880FF1FB8
:400080000000000070B586B000F014FC00F038F862B600240594012504954FF07E530393002302930195009341F2883000F020FB0D4E0E4B2A462946304600F03FF830460E
:4000C00000F088F8304600F0F5F8234600E00133B3F57A7FFBDB044C204600F0EBF8204600F03EF8FEE700BF5485FF1F500D0000024A136801331360704700BF2C85FF1F89
:4001000010B50B4AD36843F08073D360094B1A6842F001021A6000245C6000F069FB0649204600F091FB45F6BF5000F027FB10BDF0ED00E0001000E0F100000038B5044629
:4001400001700276022242760025C56105624562856213221946043000F00CFDE57538BD30B58FB0437E93B9012B09D101AC0D4D0FCD0FC42B6824F8023B1B0C23700CE0EB
:4001800001AC094D0FCD0FC42B68236005E001AC064D0FCD0FC42B68236001A800F0A4FB0FB030BD600D0000740D0000880D000008B5012000F0B8FB08BD00BF08B5012083
:4001C00000F0BEFB08BD00BF08B5012000F0C4FB08BD00BF10B58EB00446437E022B23D1027E012A20D8274B586820620A2201A900F034FD01A800F077FB234800F074FB6F
:400200002378012B03D10120FFF7D2FF08E0022B02D1FFF7D3FF03E0032B01D1FFF7D4FF0023A36263762AE0022B28D1237E023BDBB2012B23D800F095FA0022A262134B19
:400240005A60186820620A2201A900F007FD01A800F04AFB0C4800F047FB2378012B03D10120FFF7A5FF08E0022B02D1FFF7A6FF03E0032B01D1FFF7A7FF002363760EB082
:4002800010BD00BF001000E05C0D00002C85FF1F08B5002000F048FB08BD00BF08B5002000F04EFB08BD00BF08B5002000F054FB08BD00BF437E012B7BD830B58FB004460E
:4002C000037E012B38D83B4B5868E0610A2201A900F0C4FC01A800F007FB374800F004FB2378012B02D1FFF7D3FF08E0022B02D1FFF7D4FF03E0032B01D1FFF7D5FF637E8A
:4003000033B9E369226A9B1AA26A1344A36205E0636A226A9B1AA26A1344A3620A2201A9A06A00F09BFC01A800F0DEFA224800F0DBFA022363763AE0023BDBB2012B36D85E
:400340001E4D286860620A2201A900F087FC01A800F0CAFA184800F0C7FA6B68012B02D1636AA36205E0636A226A9B1AA26A1344A3620A2201A9A06A00F070FC01A800F035
:40038000B3FA0D4800F0B0FA00F0DCF92378012B02D1FFF77DFF08E0022B02D1FFF77EFF03E0032B01D1FFF77FFF022363760FB030BD7047001000E05C0D00002C85FF1F95
:4003C000FEE700BFF0B40022174611E050F82760F3B226F0FF0608E001EB420511F812406D78A5550132013BDBB2002BF4D101370D2FEBD9F0BC7047064B1B78DBB203F076
:400400000701054A11701B09013213704422034B1A707047CF0100496E5800407658004008B50A46002100F057FB08BD38B50122284B1A80182328490B7002310A80274A41
:400440001370332102321180023213700222244B1A7008224FF040231A70032103F500731970204B1B78DBB21F490B701F4B1A8041F25122023B1A80002419250CE01C4BFA
:400480001B7803F0010343EA440404F003044FF4F07000F06DFA013D0DB1032CEFD115B90320FFF78DFF134B4FF480721A8007221A70002210490A704820023108701A7078
:4004C0000222033B1A700D4A137843F00403137038BD00BF8040004082400040864000400043004008010049A146004022420040254200400440004006400040A24300403F
:4005000008B500F073FA08BD38B572B6354A137843F00403137000240CE0334D630019194A0011462A44084691882858FFF778FF0134E4B2072CF0D900240BE02A49A3008C
:400540001819420088180622416B006BFFF7D8FF0134E4B2002CF1D024494FF09040FFF731FF234A137843F0020313701032137843F0020313701F4C237843F040032370B8
:40058000A2F58632513A137843F010031370082219491A48FFF7B4FF0A2219491948FFF7AFFF082218491948FFF7AAFF082218491848FFF7A5FF184A137843F00803137025
:4005C000164D61232B70FFF731FF81232B700122134B1A70FFF710FF0E2221461148FFF78FFF38BDE84600409C0D00003800004803500140A0430040080300480251004067
:4006000010030048C05100401C030048125100402403004822510040224300400048004004000840B043004008B500F0B1F903680C2B00D1FEE7FEE708B5104E104D16E034
:4006400029686B68AC68002204E051F8040B43F8040B0432A242F8D1E868002203E0002143F8041B04328242F9D11035013E002EE6D100F093F9FFF705FDFEE70100000020
:40068000300E000008B5104A104B1A60104A136843F40073136000230AE0032B03D80D4A52F8231000E00C490C4A42F8231001332F2BF2D90A4B1A780A4B1A70074A0A4B77
:4006C0001A60FFF721FF08BD0004FA050CED00E014ED00E000000000290600000080FF1FBC760040C080FF1F08ED00E001BE704710B5044605E0084B186800F039F9A4F57E
:400700000044B4F5004FF6D8034B586800FB04F000F02EF910BD00BFCC80FF1F70B504460E46074B1D680F2802D90020FFF7DEFF04F00F0455F8240045F8246070BD00BFE1
:4007400008ED00E0024A136823F001031360704710E000E0024A136843F002031360704710E000E008B5FFF7F5FF034A136843F00103136008BD00BF10E000E020F07F4097
:40078000014B1860704700BF14E000E0012805D1054A136843F0040313607047024A136823F004031360704710E000E0024B1868C0F30040704700BF10E000E010B5FFF762
:4007C000F5FF01280BD107E0054B03EB84035B6803B19847013400E00024042CF4D910BD3485FF1F0022014B1A60704718E000E008B5002305E00F4A02EB8302002151604B
:400800000133042BF7D90C490F20FFF787FF0120FFF7BCFF094BDB680948A0FB03308009FFF7ACFFFFF7DEFF4FF40042054B1A6008BD00BF3485FF1FBD070000CC80FF1F28
:40084000D34D621000E100E0024B03EB80035868596070473485FF1F7222074B1A70202201331A700622603B1A70472210331A70022251331A7070478865004010B500F0A2
:400880007FF804460A4A137843F0200313700132137843F0100313700132137843F01003137000F033F8204600F06EF810BD00BF9865004008B5054B1B7823B9FFF7CCFFD4
:4008C0000122024B1A70FFF7D9FF08BD5085FF1F034B1B7813F0040FFAD1024B187070476A6500404A65004038B5074B1B782BB938BDFFF7EDFF0134A4B201E005460024C4
:40090000285D0028F5D138BD5085FF1F054A137843F0040313701032137843F004031370704700BFA2430040044A137803F0BF03800100F04000184310707047005100403E
:40094000044A137803F07F03C001C0B218431070704700BF00510040044A137803F0FE0300F0010018431070704700BF205100400230800803D000BF01380046FCD1704705
:40098000EFF3108072B6704780F31088704700BF014B1868704700BF0885FF1F70B50F4E0F4D761BB61018BF002405D0013455F8043B9847A642F9D10A4E0B4D00F024FA63
:4009C000761BB61018BF002406D0013455F8043B9847A642F9D170BD70BD00BF140E0000140E0000200E0000140E0000844641EA000313F0030349D1403A23D30B6803606F
:400A00004B6843608B688360CB68C3600B6903614B6943618B698361CB69C3610B6A03624B6A43628B6A8362CB6AC3620B6B03634B6B43638B6B8363CB6BC363403040311B
:400A4000403ADBD230320BD30B6803604B6843608B688360CB68C36010301031103AF3D20C3205D351F8043B40F8043B043AF9D2043208D0D2071CBF11F8013B00F8013BCE
:400A800001D30B8803806046704700BF082A13D38B07B1D010F00303AED0C3F10403D21ADB071CBF11F8013B00F8013BA4D331F8023B20F8023B9FE7043AD9D3013A11F8BE
:400AC000013B00F8013BF9D20B7803704B7843708B7883706046704770B4840746D0541E002A41D0CDB2034602E0621EE4B3144603F8015B9A07F8D1032C2ED9CDB245EACA
:400B000005250F2C45EA054519D9264603F11002103E0F2E42F8105C42F80C5C42F8085C42F8045C02F11002F2D8A4F1100222F00F0204F00F041032032C13440DD91E46B6
:400B40002246043A032A46F8045BFAD8221F22F003020432134404F003042CB1C9B21C4403F8011BA342FBD170BC704714460346C2E700BF40EA01039B0770B42BD1032AC8
:400B800029D90C460346214654F8046BA6F1013525EA060515F0803F06D1043A032A43F8046B2146EFD8A2B10C78013A1C70013101333CB16AB111F8014B013A03F8014BCE
:400BC000002CF7D12AB11A44002103F8011B9A42FBD170BC70470346E5E700BFF0B58BB06F461546DFF870E004460E46BEE80F000FC7BEE80F000FC79EE80300AB1E47F8D5
:400C0000040B222B397022D8711E0846002300E01346B4FBF5F205FB12440AAF3C4414F8287C144600F8017F5A1C002CF0D1B454F2184BB1013411F8015F1778181B84423E
:400C40000F7002F80159F5DB30460BB0F0BD002030700BB0F0BD00BFE00D0000FFF7BEBF024B13B1024800F005B8704700000000810C0000002301461A46184600F014B87C
:400C800038B5074D074C2C1BA41005D0013C55F8043D9847002CF9D1BDE8384000F0C0B8300E00002C0E00002DE9F047254C064625688846D5F8484192469946C4B3606882
:400CC0001F2817DC411C76B104EB8003C3F888A0D4F88851012282401543022EC4F88851C3F808911ED0831C6160002044F82380BDE8F087144B03B34FF4C870AFF30080CB
:400D00000446D0B1D5F84831002784E888003846C5F848410121C4F88871C4F88C71002EE1D0D1E7D4F88C311A43C4F88C21DAE705F5A674C5F84841C1E74FF0FF30BDE877
:400D4000F08700BFDC0D00000000000000000000416E616C797A6572320000000D0A0000416E616C797A6572206973205061757365640000416E616C797A6572206973209F
:400D800052756E6E696E6700416E616C797A65722069732053746F7070656400004F00401800305100404000F0510040100000000140001000140140000800400140000A9F
:400DC000004C0140000200500140200060520040000300480600000043000000E080FF1F303132333435363738396162636465666768696A6B6C6D6E6F7071727374757665
:400E00007778797A00000000F8B500BFF8BC08BC9E467047610C00004D00000085060000F8B500BFF8BC08BC9E46704729000000400E0000C880FF1F48040000A8000000BC
:400E4000000000000000E02EC05D00001800000000366E010000000000000000CC83FF1F3484FF1F9C84FF1F00000000000000000000000000000000000000000000000009
:400E8000000000000000000000000000D80D00000000000000000000000000000000000000000000000000000000000000000000000000000000000000000000000000004D
:400EC00000000000000000000000000000000000000000000000000000000000000000000000000000000000000000000000000000000000000000000000000000000000F2
:400F000001000000000000000E33CDAB34126DE6ECDE05000B0000000000000000000000000000000000000000000000000000000000000000000000000000000000000084
:400F40000000000000000000000000000000000000000000000000000000000000000000000000000000000000000000000000000000000000000000000000000000000071
:400F80000000000000000000000000000000000000000000000000000000000000000000000000000000000000000000000000000000000000000000000000000000000031
:400FC00000000000000000000000000000000000000000000000000000000000000000000000000000000000000000000000000000000000000000000000000000000000F1
:4010000000000000000000000000000000000000000000000000000000000000000000000000000000000000000000000000000000000000000000000000000000000000B0
:401040000000000000000000000000000000000000000000000000000000000000000000000000000000000000000000000000000000000000000000000000000000000070
:401080000000000000000000000000000000000000000000000000000000000000000000000000000000000000000000000000000000000000000000000000000000000030
:4010C00000000000000000000000000000000000000000000000000000000000000000000000000000000000000000000000000000000000000000000000000000000000F0
:4011000000000000000000000000000000000000000000000000000000000000000000000000000000000000000000000000000000000000000000000000000000000000AF
:40114000000000000000000000000000000000000000000000000000000000000000000000000000000000000000000000000000000000000000000000000000000000006F
:40118000000000000000000000000000000000000000000000000000000000000000000000000000000000000000000000000000000000000000000000000000000000002F
:4011C00000000000000000000000000000000000000000000000000000000000000000000000000000000000000000000000000000000000000000000000000000000000EF
:4012000000000000000000000000000000000000000000000000000000000000000000000000000000000000000000000000000000000000000000000000000000000000AE
:40124000000000000000000000000000000000000000000000000000000000000000000000000000000000000000000000000000000000000000000000000000000000006E
:40128000E080FF1F000000000000000000000000000000000000000000000000000000000000000000000000000000000000000000000000000000000000000000000000B0
:4012C00000000000000000000000000000000000000000000000000000000000000000000000000000000000000000000000000000000000000000000000000000000000EE
:4013000000000000000000000000000000000000000000000000000000000000000000000000000000000000000000000000000000000000000000000000000000000000AD
:40134000000000000000000000000000000000000000000000000000000000000000000000000000000000000000000000000000000000000000000000000000000000006D
:40138000000000000000000000000000000000000000000000000000000000000000000000000000000000000000000000000000000000000000000000000000000000002D
:020000040003F7
:0200000480007A
:40000000034F0040036500400115014003160140021701405A180140381901406B1A0140441B0140064201400648014002490140074D01400250014001100A36163688726D
:4000400089388A0FAF103E1158045F011F1283020003011C03E1047F0508080209180DC011101223141C15FF166318731A0C1B041C1F1D3C1E601FC220082144240425E783
:400080002718280C29802C012FE3304031383210331F340F362C37C038023AA03B083E0456025711580459045B045C225D205F018A0C8C718E068F01902C92439C719E0E0F
:4000C000A208A880AA13AF01B00FB2C0B430B701B828BA02BE10BF40C006C604C9FFCA07CBFFCC40CD20CEF0CF05D008D418D804D904DA04DB04DC02DD22DF01E040E1A86D
:40010000E240E320004003080524068009300A400B010C010D2A0E0110881602171619101A401B081D201EA11F10228024802508260227012B012C012D202E022F103504FF
:400140003620378238803D803EA9491050885B015E20600462806D546E107628771689088B80C073C2F9C4FACAF8CCF0CEF8D204D621D80C09140A080C130D100E0C0FACDC
:40018000100A1214150917D018401B031C201D101F402013210C22042371240326142A152B202DDC2F22300F32203410351F364037E03A023B803E544046410545EC46B02B
:4001C000480B49FF4AFF4BFF4EF04F44500C5401580459045A045B045C225D225F0166C06A406B0281488202833585F889F89120920293C299909B2CA401A801AC01B00106
:40020000B106B318B402B501B7E0BA08BE10BF01C024C103C205C401C5E0C7C0C822C9FFCAFFCBFFCC62CDA0CEF0CF41D00CD804D904DA04DC22DD02DF01E640E702E910A3
:40024000EA30EB10ED10EE10EF1200400308050208010A400B060E80107C13011554184819081A021C041D0E20022210230525402620275128453080321033083520371162
:4002800038603D043E124040451A4740482949014B024D024E02501057015890590986018A028C8491549250944497019D249E02A088A110A242A308A542A620A701C013BB
:4002C000C21BC4EECA0DCCAECEECD0F1D21CD60FE402130215045B025D04C430D6C067406B088308D880DA40E220AF40EE401040740484048840C408DE04E20110041C0461
:40030000808000004000000000C0C00000000000800040808000800000000000000B0B000000000000010100000000000000000000000000000000000000000000000000A5
:40034000000000000000000000000000000000000000000000000000000000000000000000000000000000000000000000000000000000000000000000000000000000007D
:40038000000000000000000000000000000000000000000000000000000000000000000000000000000000000000000000000000000000000000000000000000000000003D
:4003C00000000000000000000000000000000000000000000000000000000000000000000000000000000000000000000000000000000000000000000000000000000000FD
:4004000000000000000000000000000000000000000000000000000000000000000000000000000000000000000000000000000000000000000000000000000000000000BC
:0200000490006A
:0400000000004005B7
:0200000490105A
:04000000BC90ACAF55
:0200000490303A
:0200000024E3F7
:0200000490402A
:4000000000000000000000000000000000000000000000000000000000000000000000000000000000000000000000000000000000000000000000000000000000000000C0
:400040000000000000000000000000000000000000000000000000000000000000000000000000000000000000000000000000000000000000000000000000000000000080
:400080000000000000000000000000000000000000000000000000000000000000000000000000000000000000000000000000000000000000000000000000000000000040
:4000C0000000000000000000000000000000000000000000000000000000000000000000000000000000000000000000000000000000000000000000000000000000000000
:0200000490501A
:0C00000000012E16106900012E1C354C6A
:00000001FF